{
  "_format": "hh-sol-artifact-1",
  "contractName": "Token",
  "sourceName": "contracts/token.sol",
  "abi": [
    {
      "inputs": [
        {
          "internalType": "string",
          "name": "_name",
          "type": "string"
        },
        {
          "internalType": "string",
          "name": "_symbol",
          "type": "string"
        },
        {
          "internalType": "address",
          "name": "_feeAccount",
          "type": "address"
        },
        {
          "internalType": "address",
          "name": "_creatorAccount",
          "type": "address"
        }
      ],
      "stateMutability": "nonpayable",
      "type": "constructor"
    },
    {
      "inputs": [
        {
          "internalType": "uint256",
          "name": "cost",
          "type": "uint256"
        }
      ],
      "name": "CostExceedsMaximum",
      "type": "error"
    },
    {
      "inputs": [
        {
          "internalType": "address",
          "name": "spender",
          "type": "address"
        },
        {
          "internalType": "uint256",
          "name": "allowance",
          "type": "uint256"
        },
        {
          "internalType": "uint256",
          "name": "needed",
          "type": "uint256"
        }
      ],
      "name": "ERC20InsufficientAllowance",
      "type": "error"
    },
    {
      "inputs": [
        {
          "internalType": "address",
          "name": "sender",
          "type": "address"
        },
        {
          "internalType": "uint256",
          "name": "balance",
          "type": "uint256"
        },
        {
          "internalType": "uint256",
          "name": "needed",
          "type": "uint256"
        }
      ],
      "name": "ERC20InsufficientBalance",
      "type": "error"
    },
    {
      "inputs": [
        {
          "internalType": "address",
          "name": "approver",
          "type": "address"
        }
      ],
      "name": "ERC20InvalidApprover",
      "type": "error"
    },
    {
      "inputs": [
        {
          "internalType": "address",
          "name": "receiver",
          "type": "address"
        }
      ],
      "name": "ERC20InvalidReceiver",
      "type": "error"
    },
    {
      "inputs": [
        {
          "internalType": "address",
          "name": "sender",
          "type": "address"
        }
      ],
      "name": "ERC20InvalidSender",
      "type": "error"
    },
    {
      "inputs": [
        {
          "internalType": "address",
          "name": "spender",
          "type": "address"
        }
      ],
      "name": "ERC20InvalidSpender",
      "type": "error"
    },
    {
      "inputs": [
        {
          "internalType": "uint256",
          "name": "income",
          "type": "uint256"
        }
      ],
      "name": "IncomeBelowMinimum",
      "type": "error"
    },
    {
      "inputs": [
        {
          "internalType": "uint256",
          "name": "required",
          "type": "uint256"
        }
      ],
      "name": "InsufficientFunds",
      "type": "error"
    },
    {
      "inputs": [],
      "name": "TransferCcyFails",
      "type": "error"
    },
    {
      "inputs": [],
      "name": "TransferTokenFails",
      "type": "error"
    },
    {
      "anonymous": false,
      "inputs": [
        {
          "indexed": true,
          "internalType": "address",
          "name": "owner",
          "type": "address"
        },
        {
          "indexed": true,
          "internalType": "address",
          "name": "spender",
          "type": "address"
        },
        {
          "indexed": false,
          "internalType": "uint256",
          "name": "value",
          "type": "uint256"
        }
      ],
      "name": "Approval",
      "type": "event"
    },
    {
      "anonymous": false,
      "inputs": [
        {
          "indexed": true,
          "internalType": "address",
          "name": "from",
          "type": "address"
        },
        {
          "indexed": true,
          "internalType": "address",
          "name": "to",
          "type": "address"
        },
        {
          "indexed": false,
          "internalType": "uint256",
          "name": "value",
          "type": "uint256"
        }
      ],
      "name": "Transfer",
      "type": "event"
    },
    {
      "inputs": [
        {
          "internalType": "address",
          "name": "owner",
          "type": "address"
        },
        {
          "internalType": "address",
          "name": "spender",
          "type": "address"
        }
      ],
      "name": "allowance",
      "outputs": [
        {
          "internalType": "uint256",
          "name": "",
          "type": "uint256"
        }
      ],
      "stateMutability": "view",
      "type": "function"
    },
    {
      "inputs": [
        {
          "internalType": "address",
          "name": "spender",
          "type": "address"
        },
        {
          "internalType": "uint256",
          "name": "value",
          "type": "uint256"
        }
      ],
      "name": "approve",
      "outputs": [
        {
          "internalType": "bool",
          "name": "",
          "type": "bool"
        }
      ],
      "stateMutability": "nonpayable",
      "type": "function"
    },
    {
      "inputs": [
        {
          "internalType": "address",
          "name": "account",
          "type": "address"
        }
      ],
      "name": "balanceOf",
      "outputs": [
        {
          "internalType": "uint256",
          "name": "",
          "type": "uint256"
        }
      ],
      "stateMutability": "view",
      "type": "function"
    },
    {
      "inputs": [
        {
          "internalType": "uint256",
          "name": "value",
          "type": "uint256"
        }
      ],
      "name": "burn",
      "outputs": [],
      "stateMutability": "nonpayable",
      "type": "function"
    },
    {
      "inputs": [
        {
          "internalType": "address",
          "name": "account",
          "type": "address"
        },
        {
          "internalType": "uint256",
          "name": "value",
          "type": "uint256"
        }
      ],
      "name": "burnFrom",
      "outputs": [],
      "stateMutability": "nonpayable",
      "type": "function"
    },
    {
      "inputs": [
        {
          "internalType": "uint256",
          "name": "tokenAmount",
          "type": "uint256"
        },
        {
          "internalType": "uint256",
          "name": "maxCost",
          "type": "uint256"
        }
      ],
      "name": "buyTokens",
      "outputs": [],
      "stateMutability": "payable",
      "type": "function"
    },
    {
      "inputs": [],
      "name": "completed",
      "outputs": [
        {
          "internalType": "bool",
          "name": "",
          "type": "bool"
        }
      ],
      "stateMutability": "view",
      "type": "function"
    },
    {
      "inputs": [],
      "name": "decimals",
      "outputs": [
        {
          "internalType": "uint8",
          "name": "",
          "type": "uint8"
        }
      ],
      "stateMutability": "view",
      "type": "function"
    },
    {
      "inputs": [],
      "name": "extractTxnFee",
      "outputs": [],
      "stateMutability": "nonpayable",
      "type": "function"
    },
    {
      "inputs": [],
      "name": "getTxnFee",
      "outputs": [
        {
          "internalType": "uint256",
          "name": "",
          "type": "uint256"
        }
      ],
      "stateMutability": "view",
      "type": "function"
    },
    {
      "inputs": [],
      "name": "name",
      "outputs": [
        {
          "internalType": "string",
          "name": "",
          "type": "string"
        }
      ],
      "stateMutability": "view",
      "type": "function"
    },
    {
      "inputs": [
        {
          "internalType": "uint256",
          "name": "tokenAmount",
          "type": "uint256"
        },
        {
          "internalType": "uint256",
          "name": "minIncome",
          "type": "uint256"
        }
      ],
      "name": "sellTokens",
      "outputs": [],
      "stateMutability": "nonpayable",
      "type": "function"
    },
    {
      "inputs": [],
      "name": "symbol",
      "outputs": [
        {
          "internalType": "string",
          "name": "",
          "type": "string"
        }
      ],
      "stateMutability": "view",
      "type": "function"
    },
    {
      "inputs": [],
      "name": "totalSupply",
      "outputs": [
        {
          "internalType": "uint256",
          "name": "",
          "type": "uint256"
        }
      ],
      "stateMutability": "view",
      "type": "function"
    },
    {
      "inputs": [
        {
          "internalType": "address",
          "name": "to",
          "type": "address"
        },
        {
          "internalType": "uint256",
          "name": "value",
          "type": "uint256"
        }
      ],
      "name": "transfer",
      "outputs": [
        {
          "internalType": "bool",
          "name": "",
          "type": "bool"
        }
      ],
      "stateMutability": "nonpayable",
      "type": "function"
    },
    {
      "inputs": [
        {
          "internalType": "address",
          "name": "from",
          "type": "address"
        },
        {
          "internalType": "address",
          "name": "to",
          "type": "address"
        },
        {
          "internalType": "uint256",
          "name": "value",
          "type": "uint256"
        }
      ],
      "name": "transferFrom",
      "outputs": [
        {
          "internalType": "bool",
          "name": "",
          "type": "bool"
        }
      ],
      "stateMutability": "nonpayable",
      "type": "function"
    }
  ],
  "bytecode": "0x60806040526603cfe3533a7dc06007556716ad7d4acb7740006008556602d151fbc578006009556000600a60006101000a81548160ff0219169083151502179055506000600b553480156200005357600080fd5b50604051620024183803806200241883398181016040528101906200007991906200060e565b838381600390816200008c919062000909565b5080600490816200009e919062000909565b505050620000cd3065b5e620f480006602d151fbc57800620000c1919062000a1f565b6200015960201b60201c565b81600560006101000a81548173ffffffffffffffffffffffffffffffffffffffff021916908373ffffffffffffffffffffffffffffffffffffffff16021790555080600660006101000a81548173ffffffffffffffffffffffffffffffffffffffff021916908373ffffffffffffffffffffffffffffffffffffffff1602179055505050505062000af3565b600073ffffffffffffffffffffffffffffffffffffffff168273ffffffffffffffffffffffffffffffffffffffff1603620001ce5760006040517fec442f05000000000000000000000000000000000000000000000000000000008152600401620001c5919062000a6b565b60405180910390fd5b620001e260008383620001e660201b60201c565b5050565b600073ffffffffffffffffffffffffffffffffffffffff168373ffffffffffffffffffffffffffffffffffffffff16036200023c5780600260008282546200022f919062000a1f565b9250508190555062000312565b60008060008573ffffffffffffffffffffffffffffffffffffffff1673ffffffffffffffffffffffffffffffffffffffff16815260200190815260200160002054905081811015620002cb578381836040517fe450d38c000000000000000000000000000000000000000000000000000000008152600401620002c29392919062000a99565b60405180910390fd5b8181036000808673ffffffffffffffffffffffffffffffffffffffff1673ffffffffffffffffffffffffffffffffffffffff16815260200190815260200160002081905550505b600073ffffffffffffffffffffffffffffffffffffffff168273ffffffffffffffffffffffffffffffffffffffff16036200035d5780600260008282540392505081905550620003aa565b806000808473ffffffffffffffffffffffffffffffffffffffff1673ffffffffffffffffffffffffffffffffffffffff168152602001908152602001600020600082825401925050819055505b8173ffffffffffffffffffffffffffffffffffffffff168373ffffffffffffffffffffffffffffffffffffffff167fddf252ad1be2c89b69c2b068fc378daa952ba7f163c4a11628f55a4df523b3ef8360405162000409919062000ad6565b60405180910390a3505050565b6000604051905090565b600080fd5b600080fd5b600080fd5b600080fd5b6000601f19601f8301169050919050565b7f4e487b7100000000000000000000000000000000000000000000000000000000600052604160045260246000fd5b6200047f8262000434565b810181811067ffffffffffffffff82111715620004a157620004a062000445565b5b80604052505050565b6000620004b662000416565b9050620004c4828262000474565b919050565b600067ffffffffffffffff821115620004e757620004e662000445565b5b620004f28262000434565b9050602081019050919050565b60005b838110156200051f57808201518184015260208101905062000502565b60008484015250505050565b6000620005426200053c84620004c9565b620004aa565b9050828152602081018484840111156200056157620005606200042f565b5b6200056e848285620004ff565b509392505050565b600082601f8301126200058e576200058d6200042a565b5b8151620005a08482602086016200052b565b91505092915050565b600073ffffffffffffffffffffffffffffffffffffffff82169050919050565b6000620005d682620005a9565b9050919050565b620005e881620005c9565b8114620005f457600080fd5b50565b6000815190506200060881620005dd565b92915050565b600080600080608085870312156200062b576200062a62000420565b5b600085015167ffffffffffffffff8111156200064c576200064b62000425565b5b6200065a8782880162000576565b945050602085015167ffffffffffffffff8111156200067e576200067d62000425565b5b6200068c8782880162000576565b93505060406200069f87828801620005f7565b9250506060620006b287828801620005f7565b91505092959194509250565b600081519050919050565b7f4e487b7100000000000000000000000000000000000000000000000000000000600052602260045260246000fd5b600060028204905060018216806200071157607f821691505b602082108103620007275762000726620006c9565b5b50919050565b60008190508160005260206000209050919050565b60006020601f8301049050919050565b600082821b905092915050565b600060088302620007917fffffffffffffffffffffffffffffffffffffffffffffffffffffffffffffffff8262000752565b6200079d868362000752565b95508019841693508086168417925050509392505050565b6000819050919050565b6000819050919050565b6000620007ea620007e4620007de84620007b5565b620007bf565b620007b5565b9050919050565b6000819050919050565b6200080683620007c9565b6200081e6200081582620007f1565b8484546200075f565b825550505050565b600090565b6200083562000826565b62000842818484620007fb565b505050565b5b818110156200086a576200085e6000826200082b565b60018101905062000848565b5050565b601f821115620008b95762000883816200072d565b6200088e8462000742565b810160208510156200089e578190505b620008b6620008ad8562000742565b83018262000847565b50505b505050565b600082821c905092915050565b6000620008de60001984600802620008be565b1980831691505092915050565b6000620008f98383620008cb565b9150826002028217905092915050565b6200091482620006be565b67ffffffffffffffff81111562000930576200092f62000445565b5b6200093c8254620006f8565b620009498282856200086e565b600060209050601f8311600181146200098157600084156200096c578287015190505b620009788582620008eb565b865550620009e8565b601f19841662000991866200072d565b60005b82811015620009bb5784890151825560018201915060208501945060208101905062000994565b86831015620009db5784890151620009d7601f891682620008cb565b8355505b6001600288020188555050505b505050505050565b7f4e487b7100000000000000000000000000000000000000000000000000000000600052601160045260246000fd5b600062000a2c82620007b5565b915062000a3983620007b5565b925082820190508082111562000a545762000a53620009f0565b5b92915050565b62000a6581620005c9565b82525050565b600060208201905062000a82600083018462000a5a565b92915050565b62000a9381620007b5565b82525050565b600060608201905062000ab0600083018662000a5a565b62000abf602083018562000a88565b62000ace604083018462000a88565b949350505050565b600060208201905062000aed600083018462000a88565b92915050565b6119158062000b036000396000f3fe6080604052600436106100f35760003560e01c80637975ce281161008a578063a84ac11811610059578063a84ac1181461031f578063a9059cbb14610336578063dd62ed3e14610373578063ed9772b6146103b0576100f3565b80637975ce281461028457806379cc6790146102a057806395d89b41146102c95780639d9a7fe9146102f4576100f3565b8063313ce567116100c6578063313ce567146101c857806342966c68146101f357806362daf5911461021c57806370a0823114610247576100f3565b806306fdde03146100f8578063095ea7b31461012357806318160ddd1461016057806323b872dd1461018b575b600080fd5b34801561010457600080fd5b5061010d6103d9565b60405161011a9190611374565b60405180910390f35b34801561012f57600080fd5b5061014a6004803603810190610145919061142f565b61046b565b604051610157919061148a565b60405180910390f35b34801561016c57600080fd5b5061017561048e565b60405161018291906114b4565b60405180910390f35b34801561019757600080fd5b506101b260048036038101906101ad91906114cf565b610498565b6040516101bf919061148a565b60405180910390f35b3480156101d457600080fd5b506101dd6104c7565b6040516101ea919061153e565b60405180910390f35b3480156101ff57600080fd5b5061021a60048036038101906102159190611559565b6104d0565b005b34801561022857600080fd5b506102316104e4565b60405161023e91906114b4565b60405180910390f35b34801561025357600080fd5b5061026e60048036038101906102699190611586565b61057e565b60405161027b91906114b4565b60405180910390f35b61029e600480360381019061029991906115b3565b6105c6565b005b3480156102ac57600080fd5b506102c760048036038101906102c2919061142f565b61082f565b005b3480156102d557600080fd5b506102de61084f565b6040516102eb9190611374565b60405180910390f35b34801561030057600080fd5b506103096108e1565b604051610316919061148a565b60405180910390f35b34801561032b57600080fd5b506103346108f4565b005b34801561034257600080fd5b5061035d6004803603810190610358919061142f565b610a2c565b60405161036a919061148a565b60405180910390f35b34801561037f57600080fd5b5061039a600480360381019061039591906115f3565b610a4f565b6040516103a791906114b4565b60405180910390f35b3480156103bc57600080fd5b506103d760048036038101906103d291906115b3565b610ad6565b005b6060600380546103e890611662565b80601f016020809104026020016040519081016040528092919081815260200182805461041490611662565b80156104615780601f1061043657610100808354040283529160200191610461565b820191906000526020600020905b81548152906001019060200180831161044457829003601f168201915b5050505050905090565b600080610476610cae565b9050610483818585610cb6565b600191505092915050565b6000600254905090565b6000806104a3610cae565b90506104b0858285610cc8565b6104bb858585610d5c565b60019150509392505050565b60006006905090565b6104e16104db610cae565b82610e50565b50565b6000600560009054906101000a900473ffffffffffffffffffffffffffffffffffffffff1673ffffffffffffffffffffffffffffffffffffffff163373ffffffffffffffffffffffffffffffffffffffff1614610576576040517f08c379a000000000000000000000000000000000000000000000000000000000815260040161056d906116df565b60405180910390fd5b600b54905090565b60008060008373ffffffffffffffffffffffffffffffffffffffff1673ffffffffffffffffffffffffffffffffffffffff168152602001908152602001600020549050919050565b6009548211156105d65760095491505b6000826007546105e6919061172e565b90506000816716ad7d4acb7740006603cfe3533a7dc06106069190611762565b61061091906117d3565b9050600060085482610622919061172e565b90508381111561066957806040517fba1615fa00000000000000000000000000000000000000000000000000000000815260040161066091906114b4565b60405180910390fd5b600061067482610ed2565b9050600081836106849190611804565b9050348111156106cb57806040517fcb78cce20000000000000000000000000000000000000000000000000000000081526004016106c291906114b4565b60405180910390fd5b846007819055508360088190555086600960008282546106eb919061172e565b9250508190555081600b60008282546107049190611804565b9250508190555060008134610719919061172e565b905060003373ffffffffffffffffffffffffffffffffffffffff168260405161074190611869565b60006040518083038185875af1925050503d806000811461077e576040519150601f19603f3d011682016040523d82523d6000602084013e610783565b606091505b50509050806107be576040517fb8840fb400000000000000000000000000000000000000000000000000000000815260040160405180910390fd5b6107c8338a610a2c565b6107fe576040517fff36091f00000000000000000000000000000000000000000000000000000000815260040160405180910390fd5b600060095403610824576001600a60006101000a81548160ff0219169083151502179055505b505050505050505050565b6108418261083b610cae565b83610cc8565b61084b8282610e50565b5050565b60606004805461085e90611662565b80601f016020809104026020016040519081016040528092919081815260200182805461088a90611662565b80156108d75780601f106108ac576101008083540402835291602001916108d7565b820191906000526020600020905b8154815290600101906020018083116108ba57829003601f168201915b5050505050905090565b600a60009054906101000a900460ff1681565b600560009054906101000a900473ffffffffffffffffffffffffffffffffffffffff1673ffffffffffffffffffffffffffffffffffffffff163373ffffffffffffffffffffffffffffffffffffffff1614610984576040517f08c379a000000000000000000000000000000000000000000000000000000000815260040161097b906116df565b60405180910390fd5b60003373ffffffffffffffffffffffffffffffffffffffff16600b546040516109ac90611869565b60006040518083038185875af1925050503d80600081146109e9576040519150601f19603f3d011682016040523d82523d6000602084013e6109ee565b606091505b5050905080610a29576040517fb8840fb400000000000000000000000000000000000000000000000000000000815260040160405180910390fd5b50565b600080610a37610cae565b9050610a44818585610d5c565b600191505092915050565b6000600160008473ffffffffffffffffffffffffffffffffffffffff1673ffffffffffffffffffffffffffffffffffffffff16815260200190815260200160002060008373ffffffffffffffffffffffffffffffffffffffff1673ffffffffffffffffffffffffffffffffffffffff16815260200190815260200160002054905092915050565b600082600754610ae69190611804565b90506000816716ad7d4acb7740006603cfe3533a7dc0610b069190611762565b610b1091906117d3565b9050600081600754610b22919061172e565b905083811015610b6957806040517f105d4cab000000000000000000000000000000000000000000000000000000008152600401610b6091906114b4565b60405180910390fd5b82600781905550816008819055508460096000828254610b899190611804565b92505081905550610b9b333087610498565b610bd1576040517fff36091f00000000000000000000000000000000000000000000000000000000815260040160405180910390fd5b6000610bdc82610ed2565b905080600b6000828254610bf09190611804565b9250508190555060003373ffffffffffffffffffffffffffffffffffffffff168284610c1c919061172e565b604051610c2890611869565b60006040518083038185875af1925050503d8060008114610c65576040519150601f19603f3d011682016040523d82523d6000602084013e610c6a565b606091505b5050905080610ca5576040517fb8840fb400000000000000000000000000000000000000000000000000000000815260040160405180910390fd5b50505050505050565b600033905090565b610cc38383836001610ee8565b505050565b6000610cd48484610a4f565b90507fffffffffffffffffffffffffffffffffffffffffffffffffffffffffffffffff8114610d565781811015610d46578281836040517ffb8f41b2000000000000000000000000000000000000000000000000000000008152600401610d3d9392919061188d565b60405180910390fd5b610d5584848484036000610ee8565b5b50505050565b600073ffffffffffffffffffffffffffffffffffffffff168373ffffffffffffffffffffffffffffffffffffffff1603610dce5760006040517f96c6fd1e000000000000000000000000000000000000000000000000000000008152600401610dc591906118c4565b60405180910390fd5b600073ffffffffffffffffffffffffffffffffffffffff168273ffffffffffffffffffffffffffffffffffffffff1603610e405760006040517fec442f05000000000000000000000000000000000000000000000000000000008152600401610e3791906118c4565b60405180910390fd5b610e4b8383836110bf565b505050565b600073ffffffffffffffffffffffffffffffffffffffff168273ffffffffffffffffffffffffffffffffffffffff1603610ec25760006040517f96c6fd1e000000000000000000000000000000000000000000000000000000008152600401610eb991906118c4565b60405180910390fd5b610ece826000836110bf565b5050565b6000606482610ee191906117d3565b9050919050565b600073ffffffffffffffffffffffffffffffffffffffff168473ffffffffffffffffffffffffffffffffffffffff1603610f5a5760006040517fe602df05000000000000000000000000000000000000000000000000000000008152600401610f5191906118c4565b60405180910390fd5b600073ffffffffffffffffffffffffffffffffffffffff168373ffffffffffffffffffffffffffffffffffffffff1603610fcc5760006040517f94280d62000000000000000000000000000000000000000000000000000000008152600401610fc391906118c4565b60405180910390fd5b81600160008673ffffffffffffffffffffffffffffffffffffffff1673ffffffffffffffffffffffffffffffffffffffff16815260200190815260200160002060008573ffffffffffffffffffffffffffffffffffffffff1673ffffffffffffffffffffffffffffffffffffffff1681526020019081526020016000208190555080156110b9578273ffffffffffffffffffffffffffffffffffffffff168473ffffffffffffffffffffffffffffffffffffffff167f8c5be1e5ebec7d5bd14f71427d1e84f3dd0314c0f7b2291e5b200ac8c7c3b925846040516110b091906114b4565b60405180910390a35b50505050565b600073ffffffffffffffffffffffffffffffffffffffff168373ffffffffffffffffffffffffffffffffffffffff16036111115780600260008282546111059190611804565b925050819055506111e4565b60008060008573ffffffffffffffffffffffffffffffffffffffff1673ffffffffffffffffffffffffffffffffffffffff1681526020019081526020016000205490508181101561119d578381836040517fe450d38c0000000000000000000000000000000000000000000000000000000081526004016111949392919061188d565b60405180910390fd5b8181036000808673ffffffffffffffffffffffffffffffffffffffff1673ffffffffffffffffffffffffffffffffffffffff16815260200190815260200160002081905550505b600073ffffffffffffffffffffffffffffffffffffffff168273ffffffffffffffffffffffffffffffffffffffff160361122d578060026000828254039250508190555061127a565b806000808473ffffffffffffffffffffffffffffffffffffffff1673ffffffffffffffffffffffffffffffffffffffff168152602001908152602001600020600082825401925050819055505b8173ffffffffffffffffffffffffffffffffffffffff168373ffffffffffffffffffffffffffffffffffffffff167fddf252ad1be2c89b69c2b068fc378daa952ba7f163c4a11628f55a4df523b3ef836040516112d791906114b4565b60405180910390a3505050565b600081519050919050565b600082825260208201905092915050565b60005b8381101561131e578082015181840152602081019050611303565b60008484015250505050565b6000601f19601f8301169050919050565b6000611346826112e4565b61135081856112ef565b9350611360818560208601611300565b6113698161132a565b840191505092915050565b6000602082019050818103600083015261138e818461133b565b905092915050565b600080fd5b600073ffffffffffffffffffffffffffffffffffffffff82169050919050565b60006113c68261139b565b9050919050565b6113d6816113bb565b81146113e157600080fd5b50565b6000813590506113f3816113cd565b92915050565b6000819050919050565b61140c816113f9565b811461141757600080fd5b50565b60008135905061142981611403565b92915050565b6000806040838503121561144657611445611396565b5b6000611454858286016113e4565b92505060206114658582860161141a565b9150509250929050565b60008115159050919050565b6114848161146f565b82525050565b600060208201905061149f600083018461147b565b92915050565b6114ae816113f9565b82525050565b60006020820190506114c960008301846114a5565b92915050565b6000806000606084860312156114e8576114e7611396565b5b60006114f6868287016113e4565b9350506020611507868287016113e4565b92505060406115188682870161141a565b9150509250925092565b600060ff82169050919050565b61153881611522565b82525050565b6000602082019050611553600083018461152f565b92915050565b60006020828403121561156f5761156e611396565b5b600061157d8482850161141a565b91505092915050565b60006020828403121561159c5761159b611396565b5b60006115aa848285016113e4565b91505092915050565b600080604083850312156115ca576115c9611396565b5b60006115d88582860161141a565b92505060206115e98582860161141a565b9150509250929050565b6000806040838503121561160a57611609611396565b5b6000611618858286016113e4565b9250506020611629858286016113e4565b9150509250929050565b7f4e487b7100000000000000000000000000000000000000000000000000000000600052602260045260246000fd5b6000600282049050600182168061167a57607f821691505b60208210810361168d5761168c611633565b5b50919050565b7f466565206163636f756e74206f6e6c7900000000000000000000000000000000600082015250565b60006116c96010836112ef565b91506116d482611693565b602082019050919050565b600060208201905081810360008301526116f8816116bc565b9050919050565b7f4e487b7100000000000000000000000000000000000000000000000000000000600052601160045260246000fd5b6000611739826113f9565b9150611744836113f9565b925082820390508181111561175c5761175b6116ff565b5b92915050565b600061176d826113f9565b9150611778836113f9565b9250828202611786816113f9565b9150828204841483151761179d5761179c6116ff565b5b5092915050565b7f4e487b7100000000000000000000000000000000000000000000000000000000600052601260045260246000fd5b60006117de826113f9565b91506117e9836113f9565b9250826117f9576117f86117a4565b5b828204905092915050565b600061180f826113f9565b915061181a836113f9565b9250828201905080821115611832576118316116ff565b5b92915050565b600081905092915050565b50565b6000611853600083611838565b915061185e82611843565b600082019050919050565b600061187482611846565b9150819050919050565b611887816113bb565b82525050565b60006060820190506118a2600083018661187e565b6118af60208301856114a5565b6118bc60408301846114a5565b949350505050565b60006020820190506118d9600083018461187e565b9291505056fea2646970667358221220bc2829c9079687fc9953e58f99ebf89ae8fcf3e0a45616fc1b74858659cecb4864736f6c63430008180033",
  "linkReferences": {},
  "deployedLinkReferences": {}
}